{
  "contractName": "Details",
  "abi": [
    {
      "constant": true,
      "inputs": [],
      "name": "owner",
      "outputs": [
        {
          "name": "",
          "type": "address"
        }
      ],
      "payable": false,
      "stateMutability": "view",
      "type": "function"
    },
    {
      "constant": true,
      "inputs": [
        {
          "name": "",
          "type": "address"
        }
      ],
      "name": "users",
      "outputs": [
        {
          "name": "name",
          "type": "string"
        },
        {
          "name": "_address",
          "type": "string"
        },
        {
          "name": "age",
          "type": "uint256"
        }
      ],
      "payable": false,
      "stateMutability": "view",
      "type": "function"
    },
    {
      "inputs": [],
      "payable": false,
      "stateMutability": "nonpayable",
      "type": "constructor"
    },
    {
      "constant": true,
      "inputs": [],
      "name": "returnOwner",
      "outputs": [
        {
          "name": "",
          "type": "string"
        }
      ],
      "payable": false,
      "stateMutability": "view",
      "type": "function"
    },
    {
      "constant": false,
      "inputs": [
        {
          "name": "name",
          "type": "string"
        },
        {
          "name": "_address",
          "type": "string"
        },
        {
          "name": "age",
          "type": "uint256"
        },
        {
          "name": "hash",
          "type": "string"
        }
      ],
      "name": "setName",
      "outputs": [
        {
          "name": "",
          "type": "address"
        }
      ],
      "payable": false,
      "stateMutability": "nonpayable",
      "type": "function"
    }
  ],
  "bytecode": "0x608060405234801561001057600080fd5b50336000806101000a81548173ffffffffffffffffffffffffffffffffffffffff021916908373ffffffffffffffffffffffffffffffffffffffff160217905550610b42806100606000396000f300608060405260043610610062576000357c0100000000000000000000000000000000000000000000000000000000900463ffffffff1680638da5cb5b1461006757806394a927fe14610092578063a87430ba146100bd578063cfb00297146100fc575b600080fd5b34801561007357600080fd5b5061007c610139565b6040516100899190610950565b60405180910390f35b34801561009e57600080fd5b506100a761015e565b6040516100b4919061096b565b60405180910390f35b3480156100c957600080fd5b506100e460048036036100df9190810190610795565b610261565b6040516100f39392919061098d565b60405180910390f35b34801561010857600080fd5b50610123600480360361011e91908101906107be565b6103bb565b6040516101309190610950565b60405180910390f35b6000809054906101000a900473ffffffffffffffffffffffffffffffffffffffff1681565b6060600160008060009054906101000a900473ffffffffffffffffffffffffffffffffffffffff1673ffffffffffffffffffffffffffffffffffffffff1673ffffffffffffffffffffffffffffffffffffffff1681526020019081526020016000206000018054600181600116156101000203166002900480601f0160208091040260200160405190810160405280929190818152602001828054600181600116156101000203166002900480156102575780601f1061022c57610100808354040283529160200191610257565b820191906000526020600020905b81548152906001019060200180831161023a57829003601f168201915b5050505050905090565b6001602052806000526040600020600091509050806000018054600181600116156101000203166002900480601f01602080910402602001604051908101604052809291908181526020018280546001816001161561010002031660029004801561030d5780601f106102e25761010080835404028352916020019161030d565b820191906000526020600020905b8154815290600101906020018083116102f057829003601f168201915b505050505090806001018054600181600116156101000203166002900480601f0160208091040260200160405190810160405280929190818152602001828054600181600116156101000203166002900480156103ab5780601f10610380576101008083540402835291602001916103ab565b820191906000526020600020905b81548152906001019060200180831161038e57829003601f168201915b5050505050908060020154905083565b60008060009054906101000a900473ffffffffffffffffffffffffffffffffffffffff1673ffffffffffffffffffffffffffffffffffffffff163373ffffffffffffffffffffffffffffffffffffffff1614151561044e576040517f08c379a0000000000000000000000000000000000000000000000000000000008152600401610445906109d2565b60405180910390fd5b84600160008060009054906101000a900473ffffffffffffffffffffffffffffffffffffffff1673ffffffffffffffffffffffffffffffffffffffff1673ffffffffffffffffffffffffffffffffffffffff16815260200190815260200160002060000190805190602001906104c5929190610672565b5083600160008060009054906101000a900473ffffffffffffffffffffffffffffffffffffffff1673ffffffffffffffffffffffffffffffffffffffff1673ffffffffffffffffffffffffffffffffffffffff168152602001908152602001600020600101908051906020019061053d929190610672565b5082600160008060009054906101000a900473ffffffffffffffffffffffffffffffffffffffff1673ffffffffffffffffffffffffffffffffffffffff1673ffffffffffffffffffffffffffffffffffffffff16815260200190815260200160002060020181905550600160008060009054906101000a900473ffffffffffffffffffffffffffffffffffffffff1673ffffffffffffffffffffffffffffffffffffffff1673ffffffffffffffffffffffffffffffffffffffff168152602001908152602001600020600301829080600181540180825580915050906001820390600052602060002001600090919290919091509080519060200190610644929190610672565b50506000809054906101000a900473ffffffffffffffffffffffffffffffffffffffff169050949350505050565b828054600181600116156101000203166002900490600052602060002090601f016020900481019282601f106106b357805160ff19168380011785556106e1565b828001600101855582156106e1579182015b828111156106e05782518255916020019190600101906106c5565b5b5090506106ee91906106f2565b5090565b61071491905b808211156107105760008160009055506001016106f8565b5090565b90565b60006107238235610a8b565b905092915050565b600082601f830112151561073e57600080fd5b813561075161074c82610a1f565b6109f2565b9150808252602083016020830185838301111561076d57600080fd5b610778838284610ab5565b50505092915050565b600061078d8235610aab565b905092915050565b6000602082840312156107a757600080fd5b60006107b584828501610717565b91505092915050565b600080600080608085870312156107d457600080fd5b600085013567ffffffffffffffff8111156107ee57600080fd5b6107fa8782880161072b565b945050602085013567ffffffffffffffff81111561081757600080fd5b6108238782880161072b565b935050604061083487828801610781565b925050606085013567ffffffffffffffff81111561085157600080fd5b61085d8782880161072b565b91505092959194509250565b61087281610a61565b82525050565b600061088382610a56565b808452610897816020860160208601610ac4565b6108a081610af7565b602085010191505092915050565b60006108b982610a4b565b8084526108cd816020860160208601610ac4565b6108d681610af7565b602085010191505092915050565b6000602482527f596f75206d75737420626520746865206f776e6572206f66207468652061636360208301527f6f756e74000000000000000000000000000000000000000000000000000000006040830152606082019050919050565b61094a81610a81565b82525050565b60006020820190506109656000830184610869565b92915050565b600060208201905081810360008301526109858184610878565b905092915050565b600060608201905081810360008301526109a781866108ae565b905081810360208301526109bb81856108ae565b90506109ca6040830184610941565b949350505050565b600060208201905081810360008301526109eb816108e4565b9050919050565b6000604051905081810181811067ffffffffffffffff82111715610a1557600080fd5b8060405250919050565b600067ffffffffffffffff821115610a3657600080fd5b601f19601f8301169050602081019050919050565b600081519050919050565b600081519050919050565b600073ffffffffffffffffffffffffffffffffffffffff82169050919050565b6000819050919050565b600073ffffffffffffffffffffffffffffffffffffffff82169050919050565b6000819050919050565b82818337600083830152505050565b60005b83811015610ae2578082015181840152602081019050610ac7565b83811115610af1576000848401525b50505050565b6000601f19601f83011690509190505600a265627a7a723058206e87d219767631731ff3f487511ae8e4bb732e4f76280902323479a4a8ba88666c6578706572696d656e74616cf50037",
  "source": "pragma solidity ^0.4.17;\npragma experimental ABIEncoderV2;\n\ncontract Details {\n\n    address public owner;\n\n    struct User{\n        string name;\n        string _address;\n        uint age;\n        string[] files;\n    }\n\n    mapping(address => User) public users;\n\n\n    constructor() public {\n        owner = msg.sender;\n    }\n\n    modifier onlyOwner(){\n        require(msg.sender == owner, \"You must be the owner of the account\");\n        _;\n\n    }\n\n    function returnOwner() view public returns (string){\n        return users[owner].name;\n    }\n\n    function setName(string name, string _address, uint age, string hash) public onlyOwner returns (address) {\n        users[owner].name = name;\n        users[owner]._address = _address;\n        users[owner].age = age;\n        users[owner].files.push(hash);\n        return owner;\n    }\n}",
  "sourcePath": "/home/blank/Documents/REPOS/blockchain-hackathon/truffle/contracts/Details.sol",
  "compiler": {
    "name": "solc",
    "version": "0.4.23+commit.124ca40d.Emscripten.clang"
  },
  "schemaVersion": "2.0.0",
  "updatedAt": "2018-04-23T08:12:31.828Z"
}