{
  "contractName": "Details",
  "abi": [
    {
      "constant": true,
      "inputs": [],
      "name": "owner",
      "outputs": [
        {
          "name": "",
          "type": "address"
        }
      ],
      "payable": false,
      "stateMutability": "view",
      "type": "function"
    },
    {
      "constant": true,
      "inputs": [
        {
          "name": "",
          "type": "address"
        }
      ],
      "name": "users",
      "outputs": [
        {
          "name": "name",
          "type": "bytes32"
        },
        {
          "name": "_address",
          "type": "bytes32"
        },
        {
          "name": "age",
          "type": "uint256"
        }
      ],
      "payable": false,
      "stateMutability": "view",
      "type": "function"
    },
    {
      "inputs": [],
      "payable": false,
      "stateMutability": "nonpayable",
      "type": "constructor"
    },
    {
      "constant": true,
      "inputs": [],
      "name": "returnOwner",
      "outputs": [
        {
          "name": "",
          "type": "bytes32"
        }
      ],
      "payable": false,
      "stateMutability": "view",
      "type": "function"
    },
    {
      "constant": false,
      "inputs": [
        {
          "name": "name",
          "type": "bytes32"
        }
      ],
      "name": "setName",
      "outputs": [
        {
          "name": "",
          "type": "bool"
        }
      ],
      "payable": false,
      "stateMutability": "nonpayable",
      "type": "function"
    }
  ],
  "bytecode": "0x608060405234801561001057600080fd5b50336000806101000a81548173ffffffffffffffffffffffffffffffffffffffff021916908373ffffffffffffffffffffffffffffffffffffffff16021790555061055a806100606000396000f300608060405260043610610062576000357c0100000000000000000000000000000000000000000000000000000000900463ffffffff1680635ac801fe146100675780638da5cb5b146100a457806394a927fe146100cf578063a87430ba146100fa575b600080fd5b34801561007357600080fd5b5061008e6004803603610089919081019061034c565b610139565b60405161009b9190610429565b60405180910390f35b3480156100b057600080fd5b506100b9610241565b6040516100c6919061040e565b60405180910390f35b3480156100db57600080fd5b506100e4610266565b6040516100f19190610444565b60405180910390f35b34801561010657600080fd5b50610121600480360361011c9190810190610323565b6102d1565b6040516101309392919061045f565b60405180910390f35b60008060009054906101000a900473ffffffffffffffffffffffffffffffffffffffff1673ffffffffffffffffffffffffffffffffffffffff163373ffffffffffffffffffffffffffffffffffffffff161415156101cc576040517f08c379a00000000000000000000000000000000000000000000000000000000081526004016101c390610496565b60405180910390fd5b81600160008060009054906101000a900473ffffffffffffffffffffffffffffffffffffffff1673ffffffffffffffffffffffffffffffffffffffff1673ffffffffffffffffffffffffffffffffffffffff168152602001908152602001600020600001816000191690555060019050919050565b6000809054906101000a900473ffffffffffffffffffffffffffffffffffffffff1681565b6000600160008060009054906101000a900473ffffffffffffffffffffffffffffffffffffffff1673ffffffffffffffffffffffffffffffffffffffff1673ffffffffffffffffffffffffffffffffffffffff16815260200190815260200160002060000154905090565b60016020528060005260406000206000915090508060000154908060010154908060020154905083565b600061030782356104f6565b905092915050565b600061031b8235610516565b905092915050565b60006020828403121561033557600080fd5b6000610343848285016102fb565b91505092915050565b60006020828403121561035e57600080fd5b600061036c8482850161030f565b91505092915050565b61037e816104b6565b82525050565b61038d816104d6565b82525050565b61039c816104e2565b82525050565b6000602482527f596f75206d75737420626520746865206f776e6572206f66207468652061636360208301527f6f756e74000000000000000000000000000000000000000000000000000000006040830152606082019050919050565b610408816104ec565b82525050565b60006020820190506104236000830184610375565b92915050565b600060208201905061043e6000830184610384565b92915050565b60006020820190506104596000830184610393565b92915050565b60006060820190506104746000830186610393565b6104816020830185610393565b61048e60408301846103ff565b949350505050565b600060208201905081810360008301526104af816103a2565b9050919050565b600073ffffffffffffffffffffffffffffffffffffffff82169050919050565b60008115159050919050565b6000819050919050565b6000819050919050565b600073ffffffffffffffffffffffffffffffffffffffff82169050919050565b60008190509190505600a265627a7a723058209ff50729a8d7a1e30b175b358636ab4a3771456a6d2d731981fe73ddb39f86c76c6578706572696d656e74616cf50037",
  "source": "pragma solidity ^0.4.17;\npragma experimental ABIEncoderV2;\n\ncontract Details {\n\n    address public owner;\n\n    struct User{\n        bytes32 name;\n        bytes32 _address;\n        uint age;\n    }\n\n    mapping(address => User) public users;\n\n\n    constructor() public {\n        owner = msg.sender;\n    }\n\n    function returnOwner() view public returns (bytes32){\n        return users[owner].name;\n    }\n\n    function setName(bytes32 name) public returns (bool){\n        require(msg.sender == owner, \"You must be the owner of the account\");\n        users[owner].name = name;\n        return true;\n    }\n}",
  "sourcePath": "/home/blank/Documents/REPOS/blockchain-hackathon/truffle/contracts/Details.sol",
  "compiler": {
    "name": "solc",
    "version": "0.4.23+commit.124ca40d.Emscripten.clang"
  },
  "schemaVersion": "2.0.0",
  "updatedAt": "2018-04-22T21:54:24.349Z"
}