{
  "contractName": "Details",
  "abi": [
    {
      "constant": true,
      "inputs": [],
      "name": "owner",
      "outputs": [
        {
          "name": "",
          "type": "address"
        }
      ],
      "payable": false,
      "stateMutability": "view",
      "type": "function"
    },
    {
      "constant": true,
      "inputs": [
        {
          "name": "",
          "type": "address"
        }
      ],
      "name": "users",
      "outputs": [
        {
          "name": "name",
          "type": "string"
        },
        {
          "name": "_address",
          "type": "string"
        },
        {
          "name": "age",
          "type": "string"
        },
        {
          "name": "email",
          "type": "string"
        },
        {
          "name": "sex",
          "type": "string"
        }
      ],
      "payable": false,
      "stateMutability": "view",
      "type": "function"
    },
    {
      "inputs": [],
      "payable": false,
      "stateMutability": "nonpayable",
      "type": "constructor"
    },
    {
      "constant": true,
      "inputs": [],
      "name": "getEmail",
      "outputs": [
        {
          "name": "",
          "type": "string"
        }
      ],
      "payable": false,
      "stateMutability": "view",
      "type": "function"
    },
    {
      "constant": true,
      "inputs": [],
      "name": "getAge",
      "outputs": [
        {
          "name": "",
          "type": "string"
        }
      ],
      "payable": false,
      "stateMutability": "view",
      "type": "function"
    },
    {
      "constant": false,
      "inputs": [
        {
          "name": "_address",
          "type": "string"
        }
      ],
      "name": "setAddress",
      "outputs": [
        {
          "name": "",
          "type": "bool"
        }
      ],
      "payable": false,
      "stateMutability": "nonpayable",
      "type": "function"
    },
    {
      "constant": false,
      "inputs": [
        {
          "name": "name",
          "type": "string"
        }
      ],
      "name": "setName",
      "outputs": [
        {
          "name": "",
          "type": "bool"
        }
      ],
      "payable": false,
      "stateMutability": "nonpayable",
      "type": "function"
    },
    {
      "constant": false,
      "inputs": [
        {
          "name": "age",
          "type": "string"
        }
      ],
      "name": "setAge",
      "outputs": [
        {
          "name": "",
          "type": "bool"
        }
      ],
      "payable": false,
      "stateMutability": "nonpayable",
      "type": "function"
    },
    {
      "constant": false,
      "inputs": [
        {
          "name": "email",
          "type": "string"
        }
      ],
      "name": "setEmail",
      "outputs": [
        {
          "name": "",
          "type": "bool"
        }
      ],
      "payable": false,
      "stateMutability": "nonpayable",
      "type": "function"
    },
    {
      "constant": false,
      "inputs": [
        {
          "name": "sex",
          "type": "string"
        }
      ],
      "name": "setSex",
      "outputs": [
        {
          "name": "",
          "type": "bool"
        }
      ],
      "payable": false,
      "stateMutability": "nonpayable",
      "type": "function"
    },
    {
      "constant": false,
      "inputs": [
        {
          "name": "hash",
          "type": "string"
        }
      ],
      "name": "pushFiles",
      "outputs": [
        {
          "name": "",
          "type": "bool"
        }
      ],
      "payable": false,
      "stateMutability": "nonpayable",
      "type": "function"
    },
    {
      "constant": false,
      "inputs": [
        {
          "name": "name",
          "type": "string"
        },
        {
          "name": "_address",
          "type": "string"
        },
        {
          "name": "age",
          "type": "string"
        },
        {
          "name": "email",
          "type": "string"
        },
        {
          "name": "sex",
          "type": "string"
        }
      ],
      "name": "set",
      "outputs": [
        {
          "name": "",
          "type": "bool"
        }
      ],
      "payable": false,
      "stateMutability": "nonpayable",
      "type": "function"
    }
  ],
  "bytecode": "0x608060405234801561001057600080fd5b50336000806101000a81548173ffffffffffffffffffffffffffffffffffffffff021916908373ffffffffffffffffffffffffffffffffffffffff160217905550611571806100606000396000f3006080604052600436106100af576000357c0100000000000000000000000000000000000000000000000000000000900463ffffffff1680630599c284146100b45780631a0b8d55146100f157806327b9b38a1461012e578063282b065a1461016b5780637e79e8ba146101a85780638da5cb5b146101d3578063967e6e65146101fe578063a87430ba14610229578063c47f00271461026a578063f8033d6a146102a7578063fd14999b146102e4575b600080fd5b3480156100c057600080fd5b506100db60048036036100d69190810190611124565b610321565b6040516100e89190611356565b60405180910390f35b3480156100fd57600080fd5b5061011860048036036101139190810190611165565b610435565b6040516101259190611356565b60405180910390f35b34801561013a57600080fd5b5061015560048036036101509190810190611124565b610507565b6040516101629190611356565b60405180910390f35b34801561017757600080fd5b50610192600480360361018d9190810190611124565b610643565b60405161019f9190611356565b60405180910390f35b3480156101b457600080fd5b506101bd610757565b6040516101ca9190611371565b60405180910390f35b3480156101df57600080fd5b506101e861085a565b6040516101f5919061133b565b60405180910390f35b34801561020a57600080fd5b5061021361087f565b6040516102209190611371565b60405180910390f35b34801561023557600080fd5b50610250600480360361024b91908101906110fb565b610982565b604051610261959493929190611393565b60405180910390f35b34801561027657600080fd5b50610291600480360361028c9190810190611124565b610cb0565b60405161029e9190611356565b60405180910390f35b3480156102b357600080fd5b506102ce60048036036102c99190810190611124565b610dc4565b6040516102db9190611356565b60405180910390f35b3480156102f057600080fd5b5061030b60048036036103069190810190611124565b610ed8565b6040516103189190611356565b60405180910390f35b60008060009054906101000a900473ffffffffffffffffffffffffffffffffffffffff1673ffffffffffffffffffffffffffffffffffffffff163373ffffffffffffffffffffffffffffffffffffffff161415156103b4576040517f08c379a00000000000000000000000000000000000000000000000000000000081526004016103ab90611409565b60405180910390fd5b81600160008060009054906101000a900473ffffffffffffffffffffffffffffffffffffffff1673ffffffffffffffffffffffffffffffffffffffff1673ffffffffffffffffffffffffffffffffffffffff168152602001908152602001600020600101908051906020019061042b929190610fec565b5060019050919050565b60008060009054906101000a900473ffffffffffffffffffffffffffffffffffffffff1673ffffffffffffffffffffffffffffffffffffffff163373ffffffffffffffffffffffffffffffffffffffff161415156104c8576040517f08c379a00000000000000000000000000000000000000000000000000000000081526004016104bf90611409565b60405180910390fd5b6104d186610cb0565b506104db85610321565b506104e584610dc4565b506104ef83610643565b506104f982610ed8565b506001905095945050505050565b60008060009054906101000a900473ffffffffffffffffffffffffffffffffffffffff1673ffffffffffffffffffffffffffffffffffffffff163373ffffffffffffffffffffffffffffffffffffffff1614151561059a576040517f08c379a000000000000000000000000000000000000000000000000000000000815260040161059190611409565b60405180910390fd5b600160008060009054906101000a900473ffffffffffffffffffffffffffffffffffffffff1673ffffffffffffffffffffffffffffffffffffffff1673ffffffffffffffffffffffffffffffffffffffff168152602001908152602001600020600501829080600181540180825580915050906001820390600052602060002001600090919290919091509080519060200190610638929190610fec565b505060019050919050565b60008060009054906101000a900473ffffffffffffffffffffffffffffffffffffffff1673ffffffffffffffffffffffffffffffffffffffff163373ffffffffffffffffffffffffffffffffffffffff161415156106d6576040517f08c379a00000000000000000000000000000000000000000000000000000000081526004016106cd90611409565b60405180910390fd5b81600160008060009054906101000a900473ffffffffffffffffffffffffffffffffffffffff1673ffffffffffffffffffffffffffffffffffffffff1673ffffffffffffffffffffffffffffffffffffffff168152602001908152602001600020600301908051906020019061074d929190610fec565b5060019050919050565b6060600160008060009054906101000a900473ffffffffffffffffffffffffffffffffffffffff1673ffffffffffffffffffffffffffffffffffffffff1673ffffffffffffffffffffffffffffffffffffffff1681526020019081526020016000206003018054600181600116156101000203166002900480601f0160208091040260200160405190810160405280929190818152602001828054600181600116156101000203166002900480156108505780601f1061082557610100808354040283529160200191610850565b820191906000526020600020905b81548152906001019060200180831161083357829003601f168201915b5050505050905090565b6000809054906101000a900473ffffffffffffffffffffffffffffffffffffffff1681565b6060600160008060009054906101000a900473ffffffffffffffffffffffffffffffffffffffff1673ffffffffffffffffffffffffffffffffffffffff1673ffffffffffffffffffffffffffffffffffffffff1681526020019081526020016000206002018054600181600116156101000203166002900480601f0160208091040260200160405190810160405280929190818152602001828054600181600116156101000203166002900480156109785780601f1061094d57610100808354040283529160200191610978565b820191906000526020600020905b81548152906001019060200180831161095b57829003601f168201915b5050505050905090565b6001602052806000526040600020600091509050806000018054600181600116156101000203166002900480601f016020809104026020016040519081016040528092919081815260200182805460018160011615610100020316600290048015610a2e5780601f10610a0357610100808354040283529160200191610a2e565b820191906000526020600020905b815481529060010190602001808311610a1157829003601f168201915b505050505090806001018054600181600116156101000203166002900480601f016020809104026020016040519081016040528092919081815260200182805460018160011615610100020316600290048015610acc5780601f10610aa157610100808354040283529160200191610acc565b820191906000526020600020905b815481529060010190602001808311610aaf57829003601f168201915b505050505090806002018054600181600116156101000203166002900480601f016020809104026020016040519081016040528092919081815260200182805460018160011615610100020316600290048015610b6a5780601f10610b3f57610100808354040283529160200191610b6a565b820191906000526020600020905b815481529060010190602001808311610b4d57829003601f168201915b505050505090806003018054600181600116156101000203166002900480601f016020809104026020016040519081016040528092919081815260200182805460018160011615610100020316600290048015610c085780601f10610bdd57610100808354040283529160200191610c08565b820191906000526020600020905b815481529060010190602001808311610beb57829003601f168201915b505050505090806004018054600181600116156101000203166002900480601f016020809104026020016040519081016040528092919081815260200182805460018160011615610100020316600290048015610ca65780601f10610c7b57610100808354040283529160200191610ca6565b820191906000526020600020905b815481529060010190602001808311610c8957829003601f168201915b5050505050905085565b60008060009054906101000a900473ffffffffffffffffffffffffffffffffffffffff1673ffffffffffffffffffffffffffffffffffffffff163373ffffffffffffffffffffffffffffffffffffffff16141515610d43576040517f08c379a0000000000000000000000000000000000000000000000000000000008152600401610d3a90611409565b60405180910390fd5b81600160008060009054906101000a900473ffffffffffffffffffffffffffffffffffffffff1673ffffffffffffffffffffffffffffffffffffffff1673ffffffffffffffffffffffffffffffffffffffff1681526020019081526020016000206000019080519060200190610dba929190610fec565b5060019050919050565b60008060009054906101000a900473ffffffffffffffffffffffffffffffffffffffff1673ffffffffffffffffffffffffffffffffffffffff163373ffffffffffffffffffffffffffffffffffffffff16141515610e57576040517f08c379a0000000000000000000000000000000000000000000000000000000008152600401610e4e90611409565b60405180910390fd5b81600160008060009054906101000a900473ffffffffffffffffffffffffffffffffffffffff1673ffffffffffffffffffffffffffffffffffffffff1673ffffffffffffffffffffffffffffffffffffffff1681526020019081526020016000206002019080519060200190610ece929190610fec565b5060019050919050565b60008060009054906101000a900473ffffffffffffffffffffffffffffffffffffffff1673ffffffffffffffffffffffffffffffffffffffff163373ffffffffffffffffffffffffffffffffffffffff16141515610f6b576040517f08c379a0000000000000000000000000000000000000000000000000000000008152600401610f6290611409565b60405180910390fd5b81600160008060009054906101000a900473ffffffffffffffffffffffffffffffffffffffff1673ffffffffffffffffffffffffffffffffffffffff1673ffffffffffffffffffffffffffffffffffffffff1681526020019081526020016000206004019080519060200190610fe2929190610fec565b5060019050919050565b828054600181600116156101000203166002900490600052602060002090601f016020900481019282601f1061102d57805160ff191683800117855561105b565b8280016001018555821561105b579182015b8281111561105a57825182559160200191906001019061103f565b5b509050611068919061106c565b5090565b61108e91905b8082111561108a576000816000905550600101611072565b5090565b90565b600061109d82356114c4565b905092915050565b600082601f83011215156110b857600080fd5b81356110cb6110c682611456565b611429565b915080825260208301602083018583830111156110e757600080fd5b6110f28382846114e4565b50505092915050565b60006020828403121561110d57600080fd5b600061111b84828501611091565b91505092915050565b60006020828403121561113657600080fd5b600082013567ffffffffffffffff81111561115057600080fd5b61115c848285016110a5565b91505092915050565b600080600080600060a0868803121561117d57600080fd5b600086013567ffffffffffffffff81111561119757600080fd5b6111a3888289016110a5565b955050602086013567ffffffffffffffff8111156111c057600080fd5b6111cc888289016110a5565b945050604086013567ffffffffffffffff8111156111e957600080fd5b6111f5888289016110a5565b935050606086013567ffffffffffffffff81111561121257600080fd5b61121e888289016110a5565b925050608086013567ffffffffffffffff81111561123b57600080fd5b611247888289016110a5565b9150509295509295909350565b61125d81611498565b82525050565b61126c816114b8565b82525050565b600061127d8261148d565b8084526112918160208601602086016114f3565b61129a81611526565b602085010191505092915050565b60006112b382611482565b8084526112c78160208601602086016114f3565b6112d081611526565b602085010191505092915050565b6000602482527f596f75206d75737420626520746865206f776e6572206f66207468652061636360208301527f6f756e74000000000000000000000000000000000000000000000000000000006040830152606082019050919050565b60006020820190506113506000830184611254565b92915050565b600060208201905061136b6000830184611263565b92915050565b6000602082019050818103600083015261138b8184611272565b905092915050565b600060a08201905081810360008301526113ad81886112a8565b905081810360208301526113c181876112a8565b905081810360408301526113d581866112a8565b905081810360608301526113e981856112a8565b905081810360808301526113fd81846112a8565b90509695505050505050565b60006020820190508181036000830152611422816112de565b9050919050565b6000604051905081810181811067ffffffffffffffff8211171561144c57600080fd5b8060405250919050565b600067ffffffffffffffff82111561146d57600080fd5b601f19601f8301169050602081019050919050565b600081519050919050565b600081519050919050565b600073ffffffffffffffffffffffffffffffffffffffff82169050919050565b60008115159050919050565b600073ffffffffffffffffffffffffffffffffffffffff82169050919050565b82818337600083830152505050565b60005b838110156115115780820151818401526020810190506114f6565b83811115611520576000848401525b50505050565b6000601f19601f83011690509190505600a265627a7a7230582061c9d3bce2c16b7331166c46d5325a94a1c501dc4984d1b0cf98288c0406488f6c6578706572696d656e74616cf50037",
  "source": "pragma solidity ^0.4.17;\npragma experimental ABIEncoderV2;\n\ncontract Details {\n\n    address public owner;\n\n    struct User{\n        string  name;\n        string _address;\n        string  age;\n        string email;\n        string sex;\n        string[] files;\n    }\n\n    mapping(address => User) public users;\n\n    string email;\n    string age;\n\n\n    constructor() public {\n        owner = msg.sender;\n    }\n\n    modifier onlyOwner(){\n        require(msg.sender == owner, \"You must be the owner of the account\");\n        _;\n    }\n\n    function getEmail() constant returns (string){\n\n        return users[owner].email;\n    }\n\n    function getAge() constant returns (string){\n        return users[owner].age;\n    }\n\n    function setAddress(string _address) public onlyOwner returns (bool){\n        users[owner]._address = _address;\n        return true;\n    }\n\n    function setName(string name) public onlyOwner returns (bool){\n        users[owner].name = name;\n        return true;\n    }\n\n    function setAge(string age) public onlyOwner returns (bool){\n        users[owner].age = age;\n        return true;\n    }\n\n    function setEmail(string email) public onlyOwner returns (bool){\n        users[owner].email = email;\n        return true;\n    }\n\n    function setSex(string sex) public onlyOwner returns (bool){\n        users[owner].sex = sex;\n        return true;\n    }\n\n    function pushFiles(string hash) public onlyOwner returns (bool){\n        users[owner].files.push(hash);\n        return true;\n    }\n\n\n    function set(string name, string _address, string age, string email, string sex) public onlyOwner returns (bool) {\n//        string[] results;\n\n        //Set Methods\n        setName(name);\n        setAddress(_address);\n        setAge(age);\n        setEmail(email);\n        setSex(sex);\n\n        //Push inputs to results array\n//        results.push(name);\n//        results.push(_address);\n//        results.push(age);\n//        results.push(email);\n//        results.push(sex);\n//        results.push(users[owner].files);\n\n        //return owner;\n        return true;\n    }\n}",
  "sourcePath": "/home/blank/Documents/REPOS/blockchain-hackathon/truffle/contracts/Details.sol",
  "compiler": {
    "name": "solc",
    "version": "0.4.23+commit.124ca40d.Emscripten.clang"
  },
  "schemaVersion": "2.0.0",
  "updatedAt": "2018-04-23T17:33:54.258Z"
}